:0E0000000C943D000C946C000C9400000C94C9
:10000E0000000C9400000C9400000C9400000C9462
:10001E0000000C9400000C9400000C9400000C9452
:10002E0000000C9400000C9400000C9400000C9442
:10003E0000000C9400000C9400000C9400000C9432
:10004E0000000C9400000C9400000C9400000C9422
:10005E0000000C9400000C9400001F4EE7030200F9
:10006E0000036800020004036A000000F894EE2703
:10007E00EFBBF1E0F5BFE5BF8DE0A2E0BB27ED934E
:10008E008A95E9F780E098E0A0E0B1E0ED93019762
:10009E00E9F7ECE6F0E085919591009761F0A59176
:1000AE00B59105901590BF01F00105900D92019745
:1000BE00E1F7FB01F0CFE0E0EEBBEFEFEDBFE8E0E4
:1000CE00EEBFC0E0D3E00C949200AA93BA93EA93E9
:1000DE00FA93EFB7EA93E0918900FE2FE0E0DF019B
:1000EE00E0918800F0E0EA2BFB2BE73EA3E0FA0755
:1000FE0029F4E7E0E0938900EFEC04C0E3E0E0933D
:10010E008900E7EEE0938800E991EFBFF991E9915C
:10011E00B991A9911895E0E8E0936100E0E0E093D1
:10012E006100219A5A9AE2E8E0938000EAE1E093B6
:10013E008100A0910003B091010380910203909180
:10014E000303E8E00E94CB00E0938700E0910003F8
:10015E00E0938600A0910403B091050380910603FD
:10016E0090910703E8E00E94CB00E0938900E091B4
:10017E000403E0938800E0916900E260E093690077
:10018E00E89A7894FFCFFFCFEE230E2EFD01BC012F
:10019E0031F076956795F795E7950A94D1F708951E
:00000001FF
