:020000000C945E
:1000020034000C9400000C9400000C9400000C943A
:1000120000000C9400000C9400000C9400000C945E
:1000220000000C9400000C9400000C9400000C944E
:1000320000000C9400000C9400000C9400000C943E
:1000420000000C9400000C9400000C9400000C942E
:1000520000000C9400000C9400000C9400000C941E
:1000620000000C940000F894EE27EFBBF1E0F5BF1E
:10007200E5BF8DE0A2E0BB27ED938A95E9F780E02A
:1000820098E0A0E0B1E0ED930197E9F7E0E0EEBB84
:10009200EFEFEDBFE8E0EEBFC0E0D3E00C9451001B
:1000A200EFEFEAB9EBB92297E0E0E883E983A881B0
:1000B200B981189784F4E881A1E00E947900E09563
:1000C200E5B9A4E6B0E00E946F00E881F9813196BB
:1000D200E883F983ECCF2296E6CFFFCF109639F072
:1000E20080ED97E00197F1F7A8951197C9F7089568
:1000F200EE230E2EEA2F19F0EE0F0A94E9F7089577
:00000001FF
