:100000000C9443000C9400000C9400000C9400002D
:100010000C9400000C9400000C9400000C94000060
:100020000C9400000C9400000C9400000C94000050
:100030000C9400000C9400000C9400000C94000040
:100040000C9400000C9400000C9400000C94000030
:100050000C9400000C9400000C9400000C94000020
:100060000C9400000C940000535049205475746F98
:100070007269616C00446174613A000080C00200E2
:1000800000037C000000F894EE27EFBBF1E0F5BF21
:10009000E5BF8DE0A2E0BB27ED938A95E9F780E00C
:1000A00098E0A0E0B1E0ED930197E9F7EEE7F0E02A
:1000B00085919591009761F0A591B5910590159066
:1000C000BF01F00105900D920197E1F7FB01F0CF20
:1000D000E0E0EEBBEFEFEDBFE8E0EEBFC0E0D3E065
:1000E0000C947E00E0E4ECBDE4B1E37DE4B9249A35
:1000F0000895EDB5E078E9F3EEB50895E0E8E09312
:100100006100E0E0E0936100A0E181D0EBDFE2E09C
:10011000EA93A0E03DD0A8E6B0E066D0A4D0E9DF45
:100120003E2E4424A0D0A32D4AD0F9CFFFCFAA93CE
:10013000E881E07111F05B9A01C05B98E881E072A0
:1001400011F05A9A01C05A98E881E07411F0599A56
:1001500001C05998E881E07811F0589A01C0589888
:100160008DE08A95F1F75C9A8DE08A95F1F75C98BD
:100170008DE08A95F1F775C0AA93A881D8DFE88150
:10018000E295E883A881D3DF85E88A95F1F769C015
:10019000AA93E881F0E0E050FD4FE081A981AE0F25
:1001A000EBDF6980588022960895A2E063D0ACE02E
:1001B000E3DFA1E05FD0E0E05E2E6E2E0895AA930B
:1001C000A881AA3011F0681448F0E0E0EA93539453
:1001D000A52DDEDFA881AA3009F443C063945E9A9E
:1001E000A881CADF5E983DC0BA93AA931A93E981A9
:1001F000FA813196E983FA833197E4911E2FE0303A
:1002000019F0A12FDCDFF3CF188123960895AA936C
:10021000539A529A519A509A549A569A559A5C986F
:100220005E985D988880E881E058E0930203E88159
:10023000E054E0930303A4E1B0E00E9446011FD024
:100240001ED01DD0A0E273DF88EC90E00197F1F79B
:10025000A8E292DFA4E090DFA5E88EDFA6E08CDFC5
:10026000A4DF21960895E5E0EA93A1E091DFA5E7F8
:10027000B0E0BACF81DFA3E0B0E00C944601A0E388
:1002800056DF88EC90E00197F1F70895109639F069
:1002900080ED97E00197F1F7A8951197C9F70895B8
:00000001FF
