:080000000C9434000C94000084
:100008000C9400000C9400000C9400000C94000068
:100018000C9400000C9400000C9400000C94000058
:100028000C9400000C9400000C9400000C94000048
:100038000C9400000C9400000C9400000C94000038
:100048000C9400000C9400000C9400000C94000028
:100058000C9400000C9400000C9400000C94000018
:10006800F894EE27EFBBF1E0F5BFE5BF8DE0A2E025
:10007800BB27ED938A95E9F780E098E0A0E0B1E02E
:10008800ED930197E9F7E0E0EEBBEFEFEDBFE8E0B5
:10009800EEBFC0E0D3E00C945100E0E8E0936100CB
:1000A800E0E0E0936100559A5D98E0E4E0937B001E
:1000B800E0B7E5FF02C05D9801C05D9AF9CFFFCFB8
:00000001FF
