:0E0000000C9439000C9400000C9400000C9439
:10000E0000000C9400000C9400000C9400000C9462
:10001E0000000C9400000C9400000C9400000C9452
:10002E0000000C9400000C9400000C9400000C9442
:10003E0000000C9400000C9400000C9400000C9432
:10004E0000000C9400000C9400000C9400000C9422
:10005E0000000C9400000C9400000000020003004D
:10006E0068000000F894EE27EFBBF1E0F5BFE5BFA6
:10007E008DE0A2E0BB27ED938A95E9F780E098E04A
:10008E00A0E0B1E0ED930197E9F7EAE6F0E08591A3
:10009E009591009761F0A591B59105901590BF01CE
:1000AE00F00105900D920197E1F7FB01F0CFE0E032
:1000BE00EEBBEFEFEDBFE8E0EEBFC0E0D3E00C9497
:1000CE007E00E0E4E093BA000EC0E091BC00E07860
:1000DE00E1F3E091B900F0E0E87FF0700895E0916F
:1000EE00BB00F0E00895E4ECE093BC000895E0E876
:1000FE00E0936100E0E0E0936100209A2898E1DF50
:10010E00E4DFE036A0E0FA0709F4EDDFDEDFE038E9
:10011E00A0E0FA0721F4E3DF3E2E4F2EE4DFD5DF19
:10012E00E03AA0E0FA0709F4DEDFE1E0F0E0E315E3
:10013E00F40551F4E5B1A1E0EA27E5B9A2E3B0E098
:10014E000E94AD0033244424DBCFFFCF109639F04C
:10015E0080ED97E00197F1F7A8951197C9F70895EB
:00000001FF
