:080000000C9458000C94000060
:100008000C9400000C9400000C9400000C94000068
:100018000C9400000C9400000C9400000C94000058
:100028000C9400000C949C000C9400000C940000AC
:100038000C9400000C9400000C9487000C940000B1
:100048000C9400000C9400000C9400000C94000028
:100058000C9400000C9400000C9400000C94000018
:100068001027E80364000A000100001000011000D6
:10007800010000000000256400436F756E7465720E
:1000880020310056616C75653A20000080C003007D
:1000980004007A000A000003810008000A038B00AC
:1000A80002001C0394000000F894EE27EFBBF1E077
:1000B800F5BFE5BF8DE0A2E0BB27ED938A95E9F790
:1000C80080E098E0A0E0B1E0ED930197E9F7E6E978
:1000D800F0E085919591009761F0A591B591059013
:1000E8001590BF01F00105900D920197E1F7FB0112
:1000F800F0CFE0E0EEBBEFEFEDBFE8E0EEBFC0E031
:10010800D3E00C94D400AA93EA93EFB7EA93ECE314
:10011800E6BDE4E0E41530F4EBB1A1E0EA27EBB981
:10012800442401C04394E991EFBFE991A99118953E
:100138000A921A92FA926A937A938A939A93AA9352
:10014800BA93EA93FA93EFB7EA93E1E0F0E05E0E30
:100158006F1EE2E1F3E0FA93EA93EEE7F0E0FA9338
:10016800EA93E52DF62D0E94BC030E94C90384E0A2
:100178000E9423032896EAE0EA93A1E07ED0A2E158
:10018800B3E0A9D0E991EFBFF991E991B991A991AB
:100198009991899179916991F99019900990189597
:1001A800E0E8E0936100E0E0E0936100509A58983D
:1001B800E4BDE5E0E5BDECE3E6BDE0916E00E1609D
:1001C800E0936E0055985D98E0E0E0938000EEE0E3
:1001D800E0938100E0E0E0938500E0938400E09301
:1001E8008900E0E1E0938800E0916F00E260E0932D
:1001F8006F00A0E181D0E3E0EA93A0E03ED0A0E068
:10020800B3E069D0E3E0EA93A1E037D0AAE0B3E035
:1002180062D07894FFCFFFCFAA93E881E07111F004
:100228002B9A01C02B98E881E07211F02A9A01C03C
:100238002A98E881E07411F0299A01C02998E88188
:10024800E07811F0289A01C028988DE08A95F1F796
:100258002C9A8DE08A95F1F72C988DE08A95F1F724
:1002680078C0AA93A881D8DFE881E295E883A881BD
:10027800D3DF85E88A95F1F76CC0AA93E881F0E0AE
:10028800E45EFC4FE081A981AE0FEBDF3980888006
:1002980022960895A2E00E947003ACE0E2DFA1E09C
:1002A8000E947003E0E08E2E3E2E0895AA93A88146
:1002B800AA3011F0371448F0E0E0EA938394A82DAF
:1002C800DCDFA881AA3009F444C033942E9AA881AF
:1002D800C8DF2E983EC0BA93AA931A93A981BA810F
:1002E800ED91A983BA831E2FE03019F0A12FDEDF2C
:1002F800F5CF188123960895AA93239A229A219AD2
:10030800209A249A269A259A2C982E982D987880A7
:10031800E881E058E0931E03E881E054E0931F036E
:10032800A4E1B0E00E94AA030E9476030E9476032B
:100338000E947603A0E270DF88EC90E00197F1F765
:10034800A8E28FDFA4E08DDFA5E88BDFA6E089DFD8
:10035800A1DF21960895BA93AA931A930A93AA81C2
:10036800BB8112960E94C103309759F1AA81BB81C3
:1003780014960E94C1038F01309761F00230E0E0CB
:100388001E0798F0F80131978F01AA81BB81149656
:10039800ED93FC93AA81BB811296ED91FD91319664
:1003A800FE93EE933197AC81A083AA81BB810E9412
:1003B800C103FF232AF0ED91FD913196FE93EE9350
:1003C80006C0AA81BB81EFEFFFEFED93FC93198183
:1003D800088125960895BA93AA9326970E94CE037A
:1003E80010E0AC85BD85E0E0F0E0ED93FC93EA8990
:1003F800FB893196EA8BFB8B3197E4912E2FE03005
:1004080009F415C1E12FE03039F4253211F411E077
:1004180002C00E947E030AC1E130A9F4253219F412
:100428000E947E0302C112E040E000E02D3211F488
:1004380001E0FCC02B3211F44BE2F8C0203211F479
:1004480040E2F4C002C0E23039F450E013E0203357
:1004580011F40068EBC003C0E33009F0E7C02033B3
:1004680010F02A3308F007C0AAE05A9F502DE22F57
:10047800E0535E0FDBC0E22FE33649F40E948503A8
:10048800E889F989A481AA930E948B03CEC0E33737
:1004980041F40E9485030E9491030E9457031E2F76
:1004A8000AC0E03761F40E9485030E9491030E940C
:1004B80063031E2F086002600F7730E034C0E43613
:1004C80011F0E93611F4046002C0E53731F4E8E6CA
:1004D800F0E0EE83FF8315E00CC0E83511F4086006
:1004E80003C0E83709F0A1C0E2E7F0E0EE83FF833C
:1004F80014E002FF14C00E9485030E949B03AB8591
:10050800AA233AF4EA85FB850E94B803EA87FB87A9
:100518004DE2403011F01F5F01C00B7F04C00E9404
:1005280085030E949B0300FD11C0151778F407FF8F
:1005380008C002FF04C00B7F242F115001C020E324
:1005480001C020E20E947E035150EFCF312F01FFFE
:1005580017C03030A1F003FF06C0EE81FF8125915E
:10056800EE83FF8305C0AE81BF812D91AE83BF832B
:100578000E947E03503009F051503150EACF4BC0F1
:1005880020E3EE81FF810E94C503E887F987EE81A9
:10059800FF813296EE83FF83E885F985AA85BB85BE
:1005A800AE17BF0750F02F5FA885B985EA85FB8590
:1005B800EA1BFB0BEA87FB87EFCF2A3328F003FF00
:1005C80002C0295F01C0295D04FD1AC0213320F44F
:1005D800A885B985119709F409C0531710F000FFD1
:1005E80001C013C020E207FF0BC020E3006102FF37
:1005F80007C00B7F4A930E948B03503009F051507B
:100608000E947E03503009F051503150A885B985B9
:10061800129708F0B5CF00FF08C0503031F05150A4
:10062800E0E2EA930E948B03F8CF10E0E0CEAC85BD
:10063800BD850E94C1030E94D50364960895FF9268
:10064800F82E26970E94D0030E94A303309719F42E
:10065800EFEFFFEF23C0DE0116960E94B4038D0171
:100668000E94A303EE83FF83E0E0E887E987DE01C9
:100678001A960E94B4030E94C103FA93EA931A934C
:100688000A93EFEAF1E0FA93EA93DE011A96A3DE01
:100698009F01AE81BF81E0E0EC93F9010E94D7038E
:1006A8002A96FF900895BA93AA93A991B991EE2733
:1006B800FF276D91662311F03196FBCF0895BA9309
:1006C800AA93AA27BB27E991F9910590002011F078
:1006D8001196FBCFFD0108950E943501A3E0B0E01B
:1006E8000C94AA03A0E30E94100188EC90E0019703
:1006F800F1F708952A93AD85BE85EF85F8890995A8
:100708000895E889F9893497E88BF98B0895AD85C0
:10071800BE85EF85F88909950895A889B989149641
:100728000E94C103EE83FF83AE81BF810895A8892B
:10073800B98914960E94C103EA87FB870895DE01F0
:100748001C960E94B4030E94C1030895109639F0C4
:1007580080ED97E00197F1F7A8951197C9F70895EB
:100768000024AF0DB01D0895F195E195F04008956E
:100778006F2F660F660B762F0895ED91FC911197F8
:1007880008950590F491E02D08957A936A93FA9369
:10079800EA9308955A934A933A932A931A930A9399
:1007A80008955D814C813B812A81198108810895D2
:00000001FF
