:020000000C945E
:100002004C000C9400000C9400000C9400000C9422
:1000120000000C9400000C9400000C9400000C945E
:1000220000000C9400000C9400000C9400000C944E
:1000320000000C9400000C9400000C9400000C943E
:1000420000000C9400000C9400000C9400000C942E
:1000520000000C9400000C9400000C9400000C941E
:1000620000000C9400004543542053656E736F7278
:100072000054656D703A006F430080C00B000003AE
:10008200680006000B0373000300110379000200ED
:1000920018037C000000F894EE27EFBBF1E0F5BFF7
:1000A200E5BF8DE0A2E0BB27ED938A95E9F780E0FA
:1000B20098E0A0E0B1E0ED930197E9F7EEE7F0E018
:1000C20085919591009761F0A591B5910590159054
:1000D200BF01F00105900D920197E1F7FB01F0CF0E
:1000E200E0E0EEBBEFEFEDBFE8E0EEBFC0E0D3E053
:1000F2000C949700AA93E881E064E0937C008BE182
:100102008A95F1F7E0917A00E064E0937A00E09159
:100112007A00E071E1F3E0917A00E061E0937A0025
:10012200E0917800F09179000C94F202E0E8E0931B
:100132006100E0E0E0936100E0E4E0937C00E3EA48
:10014200E0937A00E0E0E0937B00A0E10E94C80225
:10015200E3E0EA93A0E00E948B02A0E0B3E00E94F9
:10016200B702E4E00E94F402ABE0B3E00E94B702FF
:10017200A0E0C0DF3E2E4F2EA32DB42D46D0E0933B
:100182001403F09315036093160370931703E9E0C9
:100192000E94F402E0911403F0911503609116039A
:1001A200709117030E942D03DF0162D1EBE00E94E0
:1001B200F402A1E1B3E00E94B702DACFFFCFBA9313
:1001C200AA93AE81BF81E885F985EA1BFB0B0F017B
:1001D200AA81BB81E881F981EA1BFB0BD0010E9455
:1001E200A1030F01AE81BF81EC81FD81EA1BFB0BF4
:1001F200D0010E94A903AA81BB81EA0FFB1F6627D7
:1002020077270E9466032A960895BA93AA93A88133
:10021200B981AA34E1E0BE0720F0A03AE1E0BE07CE
:1002220008F012C00E94F702EAE4F1E0FA93EA93BE
:10023200EFE9F1E0FA93EA93E2E1F0E0FA93EA936C
:10024200A9E1B0E0BCDF71C1A881B981A03AE1E0C7
:10025200BE0720F0A33CE1E0BE0708F012C00E94F6
:10026200F702EFE9F1E0FA93EA93E2ECF1E0FA93B4
:10027200EA93E9E1F0E0FA93EA93ADE1B0E09FDFBF
:1002820054C1A881B981A33CE1E0BE0720F0AB3E96
:10029200E1E0BE0708F011C0A9D1E2ECF1E0FA9367
:1002A200EA93EAEEF1E0FA93EA93EDE1F0E0FA93F1
:1002B200EA93A3E2B0E083DF38C1A881B981AB3E03
:1002C200E1E0BE0720F0A732E2E0BE0708F011C06D
:1002D2008DD1EAEEF1E0FA93EA93E6E2F2E0FA93E4
:1002E200EA93E3E2F0E0FA93EA93A8E2B0E067DF90
:1002F2001CC1A881B981A732E2E0BE0720F0AD3669
:10030200E2E0BE0708F011C071D1E6E2F2E0FA9332
:10031200EA93ECE6F2E0FA93EA93E8E2F0E0FA9389
:10032200EA93AEE2B0E04BDF00C1A881B981AD36FD
:10033200E2E0BE0720F0AA39E2E0BE0708F011C0F1
:1003420055D1ECE6F2E0FA93EA93E9E9F2E0FA93A6
:10035200EA93EEE2F0E0FA93EA93A3E3B0E02FDF50
:10036200E4C0A881B981AF39E2E0BE0720F0A93F1D
:10037200E2E0BE0708F011C039D1E9E9F2E0FA93F0
:10038200EA93E3ECF2E0FA93EA93E3E3F0E0FA9320
:10039200EA93ACE3B0E013DFC8C0A881B981A93FFA
:1003A200E2E0BE0720F0A632E3E0BE0708F011C08B
:1003B2001DD1E8EFF2E0FA93EA93E5E2F3E0FA9373
:1003C200EA93ECE3F0E0FA93EA93A1E4B0E0F7DE1B
:1003D200ACC0A881B981A632E3E0BE0720F0A934FF
:1003E200E3E0BE0708F011C001D1E5E2F3E0FA93C1
:1003F200EA93E8E4F3E0FA93EA93E1E4F0E0FA93B3
:10040200EA93A6E4B0E0DBDE90C0A881B981A9340A
:10041200E3E0BE0720F0AF35E3E0BE0708F011C00D
:10042200E5D0E8E4F3E0FA93EA93E7E5F3E0FA9340
:10043200EA93E6E4F0E0FA93EA93AAE4B0E0BFDEDE
:1004420074C0A881B981AF35E3E0BE0728F0E0E0CF
:10045200F0E066E972E469C0A881B981AA34E1E0FA
:10046200BE0728F4E0E0F0E068E871E45EC05DC039
:10047200BA93AA930E94BF03AC81BD81EAE0F0E087
:100482000E94A903DF01EAE0F0E00E94BC038F01B1
:10049200AC81BD81EAE0F0E00E94BC039F01A02F85
:1004A200A05D4FD0A22FA05D4CD00E94C40326961F
:1004B2000895AA93E881E07111F05B9A01C05B98FC
:1004C200E881E07211F05A9A01C05A98E881E0740A
:1004D20011F0599A01C05998E881E07811F0589AC0
:1004E20001C058988DE08A95F1F75C9A8DE08A9563
:1004F200F1F75C988DE08A95F1F773C0AA93A88111
:10050200D8DFE881E295E883A881D3DF85E88A9580
:10051200F1F767C0AA93E881F0E0E85EFC4FE08162
:10052200A981AE0FEBDF6980588022960895A2E080
:1005320062D0ACE0E3DFA1E05ED0E0E05E2E6E2EA2
:100542000895AA93A881AA3011F0681448F0E0E057
:10055200EA935394A52DDEDFA881AA3009F441C0A5
:1005620063945E9AA881CADF5E983BC0BA93AA934D
:100572001A93A981BA81ED91A983BA831E2FE03023
:1005820019F0A12FDEDFF5CF188123960895AA93E3
:10059200539A529A519A509A549A569A559A5C98EA
:1005A2005E985D988880E881E058E0931A03E881BC
:1005B200E054E0931B03A4E1B0E00E94080320D0C2
:1005C2001FD01ED0A0E275DF88EC90E00197F1F712
:1005D200A8E294DFA4E092DFA5E890DFA6E08EDF38
:1005E200A6DF21960895EA93A1E094CFE881F981EC
:1005F200FA93EA93089582DFA3E0B0E00C94080333
:10060200A0E357DF88EC90E00197F1F70895109688
:1006120039F080ED97E00197F1F7A8951197C9F7A6
:10062200089550E8572711F45F936BC05F3F31F094
:10063200660F000C57956795752F08955F930020FC
:100642000AF06BC064C050E8072E0522660F771FC0
:100652007527550F67950895689401C0E8945F93D4
:10066200F2DF703818F07F3F08F44BC056E1571B99
:10067200AAF4519558300EF4593030F0EFEFFFEFF5
:100682006FEF7FE777F91AC077275523B9F0EE0F9E
:10069200FF1F661F771F5A95D1F710C07727583072
:1006A20028F0EF2FF62F672F5850F9CF552331F04E
:1006B20076956795F795E7955A95D1F700200AF454
:1006C20032D05F910895689401C0E89430976040F9
:1006D2007040B1F0002426F0772312F4009423D066
:1006E200172E7EE1112032F07A95EE0FFF1F661F62
:1006F200111CF9CFEF2FF62F612D5F9392DF5F91DF
:100702000895EE27FF27662777275F910895EFEF79
:10071200FFEF6FE77FEF5F910895EFEFFFEF6FE776
:100722007FE75F910895F09560957095E195FF4F91
:100732006F4F7F4F08956F2F660F660B762F0895C8
:10074200FA9FF02DEB9FF00DEA9FE02DF10D089539
:100752000024112490E1AA0FBB1F001C111C0E1AC9
:100762001F0A18F40E0E1F1E01C0A1609A9599F778
:10077200FD01D0010895ECDFFD0108953A932A931B
:100782001A930A9308953B812A8119810881089559
:00000001FF
