:0C0000000C9447000C9400000C940000CD
:10000C000C9400000C9400000C9400000C94000064
:10001C000C9400000C9400000C9400000C94000054
:10002C000C9400000C9400000C9400000C94000044
:10003C000C9400000C9400000C9400000C94000034
:10004C000C9400000C9400000C9400000C94000024
:10005C000C9400000C9400000C94000041444320CC
:10006C0077697468204C4D3335200054656D703AB7
:10007C00000080C00F000003680002000F037E0028
:10008C000000F894EE27EFBBF1E0F5BFE5BF8DE083
:10009C00A2E0BB27ED938A95E9F780E098E0A0E019
:1000AC00B1E0ED930197E9F7E0E8F0E085919591E7
:1000BC00009761F0A591B59105901590BF01F001E5
:1000CC0005900D920197E1F7FB01F0CFE0E0EEBB5C
:1000DC00EFEFEDBFE8E0EEBFC0E0D3E00C94910091
:1000EC00AA93E881E064E0937C008BE18A95F1F7B8
:1000FC00E0917A00E064E0937A00E0917A00E0719C
:10010C00E1F3E0917A00E061E0937A00E09178000D
:10011C00F091790001C1E0E8E0936100E0E0E09348
:10012C006100E0E4E0937C00E6EAE0937A00E0E032
:10013C00E0937B00A0E1C6D0E1E0EA93A0E074D0AC
:10014C00A0E0B3E09DD0A8EEB3E00E94A801A5E02A
:10015C00C7DF3E2E4F2EADE7B0E00E94B201EF2F6D
:10016C00F0E05E2E6F2EE4E0EA93A1E05DD0A7E70D
:10017C00B0E095D0A52DB62D02D0E9CFFFCFBA9324
:10018C00AA930E94D001AE81BF81E4E6F0E0C6D014
:10019C008F01AE81BF81EAE0F0E0C0D09F01AE815B
:1001AC00BF81EAE0F0E00E94CD01AF01A02FA05D7D
:1001BC0052D0A22FA05D4FD0A42FA05D4CD00E9496
:1001CC00D70128960895AA93E881E07111F02B9A33
:1001DC0001C02B98E881E07211F02A9A01C02A988C
:1001EC00E881E07411F0299A01C02998E881E0783F
:1001FC0011F0289A01C028988DE08A95F1F72C9A75
:10020C008DE08A95F1F72C988DE08A95F1F784C0F2
:10021C00AA93A881D8DFE881E295E883A881D3DF8F
:10022C0085E88A95F1F778C0AA93E881F0E0E15F60
:10023C00FC4FE081A981AE0FEBDF8980788022969C
:10024C000895A2E073D0ACE0E3DFA1E06FD0E0E072
:10025C007E2E8E2E0895AA93A881AA3011F08A14AE
:10026C0048F0E0E0EA937394A72DDEDFA881AA3072
:10027C0009F452C083942E9AA881CADF2E984CC0E0
:10028C00BA93AA931A93A981BA81ED91A983BA83DF
:10029C001E2FE03019F0A12FDEDFF5CF10C0BA937E
:1002AC00AA931A93E981FA813196E983FA833197FB
:1002BC00E4911E2FE03019F0A12FCDDFF3CF188180
:1002CC0023960895AA93239A229A219A209A249AE3
:1002DC00269A259A2C982E982D98A880E881E0587B
:1002EC00E0931103E881E054E0931203A4E1B0E041
:1002FC000E94A80120D01FD01ED0A0E264DF88ECA1
:10030C0090E00197F1F7A8E283DFA4E081DFA5E894
:10031C007FDFA6E07DDF95DF219608950E94BA016C
:10032C00DF01EAE0F0E00E94CD01089571DFA3E067
:10033C00B0E00C94A801A0E346DF88EC90E00197B4
:10034C00F1F70895109639F080ED97E00197F1F7E9
:10035C00A8951197C9F70895FA9FF02DEB9FF00D12
:10036C00EA9FE02DF10D08950024112490E1AA0FCD
:10037C00BB1F001C111C0E1A1F0A18F40E0E1F1E98
:10038C0001C0A1609A9599F7FD01D0010895ECDFA9
:10039C00FD0108955A934A933A932A931A930A9318
:1003AC0008955D814C813B812A81198108810895D2
:00000001FF
