:0A0000000C9456000C9455020C9469
:10000A0000000C9400000C9400000C9400000C9466
:10001A0000000C9400000C9400000C948D020C94C7
:10002A0000000C9400000C9400000C946C020C94D8
:10003A0000000C9400000C9400000C9400000C9436
:10004A0000000C9400000C9400000C9400000C9426
:10005A0000000C9400000C9400000C94000010277F
:10006A00E80364000A00010000100001100001000A
:10007A00CDCC4C3E3333B33E17B7D13800007F4363
:10008A0080C0040004037A00040008037E00040010
:10009A000C038200040020038600020044038A0045
:1000AA000000F894EE27EFBBF1E0F5BFE5BF8DE065
:1000BA00A2E0BB27ED938A95E9F780E098E0A0E0FB
:1000CA00B1E0ED930197E9F7ECE8F0E085919591BD
:1000DA00009761F0A591B59105901590BF01F001C7
:1000EA0005900D920197E1F7FB01F0CFE0E0EEBB3E
:1000FA00EFEFEDBFE8E0EEBFC0E0D3E00C94A00064
:10010A00AA93E881E0937C0085E38A95F1F7E09170
:10011A007A00E064E0937A00E0917A00E071E1F31A
:10012A00E0917A00E061E0937A00E0917800F09142
:10013A0079000C944C03E0E8E0936100E0E0E0937E
:10014A006100E3E0E0936900E1E0EDBBECBBE0E0D5
:10015A00E0936800EAB9ECE0EBB9569A559A579AD7
:10016A00209A5F9A289AE3E8E4BDE2E0E5BDE2EC72
:10017A00E6BDE0E0E7BDE8BDE0938000E1E0E093A2
:10018A0081000E944E03E0E0E093B600E093B000E5
:10019A00E4E0E093B100E6E0E093B200E0E0E0934F
:1001AA006E00E1E0E0936F00E0937000E0E0E0931E
:1001BA007C00E3EAE0937A00E0E0E0937B00A0E1D0
:1001CA000E941F03249A2C98519A11D07894A0E087
:1001DA0097DF662777270E943204E0931C03F09387
:1001EA001D0360931E0370931F03F1CFFFCFE0E05E
:1001FA00E093C500E8E0E093C400E6E0E093C200C3
:10020A00E8E1E093C1000895AA93E091C000E0728A
:10021A00E1F3E881E093C6000C944C03BA93AA93E5
:10022A001A930A9300E010E000E010E0EA81FB81F3
:10023A000E171F0750F4F801AC81BD81AE0FBF1F26
:10024A00AC91E2DF0F5F1F4FF1CF1981088126962B
:10025A0008952897E0910003F09101036091020349
:10026A0070910303EC83FD836E837F83A09138032F
:10027A00B091390380913A0390913B030E946F0534
:10028A000E9432040E949005EC81FD816E817F817B
:10029A00E0933803F093390360933A0370933B0376
:1002AA000E948B05E0E0F0E06AEF74E40E940A0520
:1002BA00A0E0B0E88BEB95E40E94BC04E093100345
:1002CA00F09311036093120370931303A091100328
:1002DA00B091110380911203909113030E94550368
:1002EA000E946504E0931403F093150360931603C8
:1002FA00709317030E945E03A0910403B091050353
:10030A0080910603909107030E94BC04E0932C039A
:10031A00F0932D0360932E0370932F030E945E03C4
:10032A00A0910803B091090380910A0390910B03ED
:10033A000E94BC04AAE0B7ED83E29CE30E94BC04DD
:10034A000E9467030E946C04E0933003F093310328
:10035A006093320370933303A0912803B091290369
:10036A0080912A0390912B030E945E030E946504E8
:10037A00A0910C03B0910D0380910E0390910F038D
:10038A000E94BC04DF01CB01EAE0F7ED63E27CE303
:10039A000E940A05E0933403F09335036093360311
:1003AA0070933703E0913003F09131036091320387
:1003BA0070913303A0912C03B0912D0380912E03E9
:1003CA0090912F030E946C04A0913403B0913503DD
:1003DA0080913603909137030E946C04E0931803CE
:1003EA00F093190360931A0370931B030E945E0330
:1003FA00E0932803F093290360932A0370932B0355
:10040A000E9470030E9467030E944F0509F008F4D6
:10041A0003C00E94700309C00E9479030E94670307
:10042A000E944F0550F40E947903E0933003F09341
:10043A00310360933203709333030E9470030E9466
:10044A00820309F008F403C00E94700307C00E94E7
:10045A0079030E94820350F40E947903E0931803FF
:10046A00F093190360931A0370931B030E948D0380
:10047A000E94FB03DF010ED00E9496030E94FB0339
:10048A003E2E4F2E0E945E030E94FB035E2E6F2EAD
:10049A0028960895BA93AA93E881E7BD229608950B
:1004AA006A937A93AA93BA93EA93FA93EFB7EA9381
:1004BA00A0E0B3E00E9481050E949F03E991EFBF8B
:1004CA00F991E991B991A9917991699118950E9447
:1004DA00A603A0913C03B0913D0380913E03909105
:1004EA003F03AA30E0E0BE07E0E08E07E0E09E07A7
:1004FA0054F0AFDEE0E0E0933C03E0933D03E09389
:10050A003E03E0933F030E944E03ACE3B3E042C0D4
:10051A000E94A603A0914003B09141038091420337
:10052A0090914303A431E0E0BE07E0E08E07E0E0EB
:10053A009E075CF160970E9455030E9490050E94F5
:10054A009603EC83FD836E837F830E945E03E887B4
:10055A00F9876A877B870E948D03EC87FD876E8700
:10056A007F87ABEB51DEFE01FA93EA93A0E1B0E09C
:10057A0055DEACEC49DEE0E0E0934003E093410352
:10058A00E0934203E09343036096E6E0E093B2000F
:10059A00A0E4B3E00E9481050E949F03E991EFBFA6
:1005AA00F991E991B991A991999189917991699171
:1005BA00F990199009901895AA93E881E07111F0C1
:1005CA00449A01C04498E881E07211F0439A01C04C
:1005DA004398E881E07411F0429A01C04298E88198
:1005EA00E07811F0419A01C041988BE18A95F1F7C0
:1005FA00459A8BE18A95F1F745988BE18A95F1F74F
:10060A0046C0AA93A881D8DFE881E295E883A88149
:10061A00D3DF88EC90E00197F1F739C0A2E00E949D
:10062A00B403ACE0EEDFA1E00E94B403E0E07E2E6A
:10063A008E2E0895AA933C9A3B9A3A9A399A3D9AF1
:10064A00229A239A45982A982B98A880E881E058FC
:10065A00E0934603E881E054E0934703A4E1B0E065
:10066A000E94C2030E94BA030E94BA030E94BA03FC
:10067A00A0E2A2DF80E991E00197F1F7A8E2C1DFE9
:10068A00A4E0BFDFA5E8BDDFA6E0BBDFC7DF219698
:10069A000895E1ECE0938500E0E8E0938400089592
:1006AA00E0911C03F0911D0360911E0370911F03DA
:1006BA000895E0911403F091150360911603709167
:1006CA0017030895A0913003B0913103809132034A
:1006DA00909133030895E0912003F09121036091F2
:1006EA002203709123030895E0912403F0912503D6
:1006FA0060912603709127030895A0911803B09181
:10070A00190380911A0390911B030E944F050895C3
:10071A00E0911803F091190360911A0370911B0379
:10072A000895E0911003F091110360911203709102
:10073A0013030895EF5FFF4F6F4F7F4F0E948605A7
:10074A0008950A921A92FA926A937A938A939A93DA
:10075A00AA93BA93EA93FA93EFB7EA9308950E9499
:10076A000603A3E0B0E00C94C203A0E30E94E102F6
:10077A0080E991E00197F1F70895109639F080EA3F
:10078A009FE00197F1F7A8951197C9F708955523A6
:10079A0042F4503811F4E0FF04C03196691F791F02
:1007AA006BF050E8572711F45F93CFC05F3F31F0E9
:1007BA00660F000C57956795752F08955F93002073
:1007CA000AF0CFC0C8C050E8192E1522880F991F09
:1007DA009527550F879550E8072E0522660F771F34
:1007EA007527550F67950895689401C0E8945F933B
:1007FA00F2DF703818F07F3F08F4A7C056E1571BA4
:10080A00AAF4519558300EF4593030F0EFEFFFEF5B
:10081A006FEF7FE777F91AC077275523B9F0EE0F04
:10082A00FF1F661F771F5A95D1F710C077275830D8
:10083A0028F0EF2FF62F672F5850F9CF552331F0B4
:10084A0076956795F795E7955A95D1F700200AF4BA
:10085A0046D15F910895689401C0E894309760404A
:10086A007040B1F0002426F0772312F4009437D1B7
:10087A00172E7EE1112032F07A95EE0FFF1F661FC8
:10088A00111CF9CFEF2FF62F612D5F938ADF5F914D
:10089A0008954F93AF01FD01DA01AB01BC01CA0112
:1008AA00402D012C142E4F910895EA0FFB1F681F4B
:1008BA000895E095F0956095EF5FFF4F6F4F0895AB
:1008CA005F9381DF903871F150E8152604C05F9379
:1008DA007ADF903839F1703821F1572F591B2BF1F3
:1008EA0012F4D7DFFACF583118F0AA27BB27882786
:1008FA00583028F0AB2FB82F88275850F9CF5523F6
:10090A0029F08695B795A7955A95D9F7502D51256F
:10091A0072F0CBDF38F46795F795E795739513F482
:10092A0020C0B7DF3EDF5F910895D8F7FBCFEA1BFF
:10093A00FB0B680B51F010F40094BBDF662392F3B3
:10094A00EE0FFF1F661F7A95CBF7EE27FF27662764
:10095A0077275F910895EFEFFFEF6FE77FEF5F91E2
:10096A000895EFEFFFEF6FE77FE75F9108955F93D9
:10097A002ADF703851F3903841F301240894791F23
:10098A0023F41CF300203AF3ECCF0F921F932F931A
:10099A003F934F93112722279927689FA0018F9F82
:1009AA00302D410D591F6B9F300D411D591F8E9FD0
:1009BA0027D0BF9F25D06A9F23D0BE9F1DD0AF9F4F
:1009CA001BD0AE9F110D291F391F491F591FE32F35
:1009DA00F42F652F522F4F913F912F911F910F9016
:1009EA0066232AF0550FEE1FFF1F661F02C073957C
:1009FA004BF2CDDE5F910895100D211D391F02C003
:100A0A00200D311D491F591F08955F93DCDE703890
:100A1A0021F411200AF49FCFA4CF903809F495CF7E
:100A2A0001240894970B1BF4D4F30020F3CF792FF9
:100A3A001F932F933F934F93112411272227332774
:100A4A004427552790E2AE17BF078607410730F0C3
:100A5A00AE1BBF0B860B410B089401C08894551F2F
:100A6A00221F331F111CAA1FBB1F881F441F9A95E0
:100A7A0051F7F901612D4F913F912F911F916623F3
:100A8A0032F0550FEE1FFF1F661F7A9543F27FDE85
:100A9A005F91089599239AF0772342F0971748F0C7
:100AAA0029F4AE17BF07860720F031F0989488948E
:100ABA00089598940894089518948894089577232B
:100ACA00C2F7971798F3A9F7EA17FB07680788F39D
:100ADA0099F3ECCFEA1BFB0B680B790B0895F095A1
:100AEA0060957095E195FF4F6F4F7F4F08956F2F77
:100AFA00660F660B762F0895ED91FD916D917D91AC
:100B0A0008957E936E93FE93EE930895A881B9811A
:100B1A008A819B810895E883F9836A837B83089598
:00000001FF
