:060000000C9459000C9461
:1000060088000C9400000C9400000C9400000C94E2
:1000160000000C9400000C9400000C9400000C945A
:1000260000000C9400000C9400000C9400000C944A
:1000360000000C9400000C9400000C9400000C943A
:1000460000000C9400000C9400000C9400000C942A
:1000560000000C9400000C9400000C9400000C941A
:1000660000000000436F756E7465723A00494E5485
:10007600455252555054000080C001002D4E414E4D
:1000860000494E4600000100040068000900000314
:100096006A000A0009037300090013036A000200DC
:1000A6001F037E000100230380000000F894EE2762
:1000B600EFBBF1E0F5BFE5BF8DE0A2E0BB27ED9316
:1000C6008A95E9F780E098E0A0E0B1E0ED9301972A
:1000D600E9F7ECE8F0E085919591009761F0A5913C
:1000E600B59105901590BF01F00105900D9201970D
:1000F600E1F7FB01F0CFE0E0EEBBEFEFEDBFE8E0AC
:10010600EEBFC0E0D3E00C94B0000A921A92FA92C5
:100116006A937A938A939A93AA93BA93EA93FA93F1
:10012600EFB7EA9343940E94A301E0E0EA93A1E0CB
:100136006BD0A0E0B3E096D0ACE1B3E093D0E99108
:10014600EFBFF991E991B991A99199918991799125
:100156006991F990199009901895E0E8E09361008B
:10016600E0E0E0936100A0E18ED0E3E0EA93A0E056
:100176004BD0A9E0B3E076D0E0E0EA93A1E044D02A
:10018600A3E1B3E06FD00E94A301ACE1B3E06AD073
:100196005A9A5298E2E0E0936900E1E0EDBBECBBCD
:1001A6007894FFCFFFCFAA93E881E07111F02B9AE4
:1001B60001C02B98E881E07211F02A9A01C02A98B2
:1001C600E881E07411F0299A01C02998E881E07865
:1001D60011F0289A01C028988DE08A95F1F72C9A9B
:1001E6008DE08A95F1F72C988DE08A95F1F778C025
:1001F600AA93A881D8DFE881E295E883A881D3DFB6
:1002060085E88A95F1F76CC0AA93E881F0E0E15E93
:10021600FC4FE081A981AE0FEBDF39806880229622
:100226000895A2E00E94AB01ACE0E2DFA1E00E94EB
:10023600AB01E0E06E2E3E2E0895AA93A881AA3067
:1002460011F0351448F0E0E0EA936394A62DDCDF64
:10025600A881AA3009F444C033942E9AA881C8DF35
:100266002E983EC0BA93AA931A93A981BA81ED91AA
:10027600A983BA831E2FE03019F0A12FDEDFF5CF58
:10028600188123960895AA93239A229A219A209A4E
:10029600249A269A259A2C982E982D985880E8818B
:1002A600E058E0932103E881E054E0932203A4E1BF
:1002B600B0E00E94B9010E94B1010E94B1010E9402
:1002C600B101A0E270DF88EC90E00197F1F7A8E2B7
:1002D6008FDFA4E08DDFA5E88BDFA6E089DFA1DF55
:1002E60021960895BA93AA93A991B991E991F991A2
:1002F60030962AF4E095F09531966DE26D93E89488
:1003060080E197E20DD088EE93E00AD084E6992743
:1003160007D08AE005D06E2F10D066276C9308951B
:100326006627E817F90720F06395E81BF90BC9F76C
:10033600662311F416F008956894605D6D93089530
:10034600E42DF0E0FA93EA93ACE1B3E00C94750186
:100356000E94FB00A3E0B0E00C94B901A0E30E9468
:10036600D60088EC90E00197F1F70895109639F0E1
:1003760080ED97E00197F1F7A8951197C9F70895D1
:00000001FF
