:0A0000000C9441000C9400000C94D5
:10000A0000000C9400000C9400000C9400000C9466
:10001A0000000C9400000C9400000C9400000C9456
:10002A0000000C9400000C9400000C9400000C9446
:10003A0000000C9400000C9400000C9400000C9436
:10004A0000000C9400000C9400000C9400000C9426
:10005A0000000C9400000C9400000C9400000000B6
:10006A004079243019120278001001000800680053
:10007A000A0000036A000000F894EE27EFBBF1E0E3
:10008A00F5BFE5BF8DE0A2E0BB27ED938A95E9F7BE
:10009A0080E098E0A0E0B1E0ED930197E9F7E4E7AA
:1000AA00F0E085919591009761F0A591B591059041
:1000BA001590BF01F00105900D920197E1F7FB0140
:1000CA00F0CFE0E0EEBBEFEFEDBFE8E0EEBFC0E05F
:1000DA00D3E00C947000E0E8E0936100E0E0E09384
:1000EA006100EFEFEBB9EAB9289A459A20983D9852
:1000FA00342CE0E01899E1E04E2E562CE0E03599D8
:10010A00E1E06E2E189902C0332009F407C0E9E035
:10011A008E1610F4839401C088240CC0359902C04D
:10012A00552009F407C0E0E0E81510F48A9402C0EB
:10013A00E9E08E2EE82DF0E0E050FD4FE081EBB9CA
:10014A00A2E3B0E00E94AB00D3CFFFCF109639F004
:10015A0080ED97E00197F1F7A8951197C9F70895EF
:00000001FF
