:040000000C94430019
:100004000C9400000C9400000C9400000C9400006C
:100014000C9400000C9400000C9400000C9400005C
:100024000C9400000C9400000C9400000C9400004C
:100034000C9400000C9400000C9400000C9400003C
:100044000C9400000C9472000C9400000C940000BA
:100054000C9400000C9400000C9400000C9400001C
:100064000C940000444154412046524F4D205043CB
:1000740000434841523A000080C0020001037C0062
:100084000000F894EE27EFBBF1E0F5BFE5BF8DE08B
:10009400A2E0BB27ED938A95E9F780E098E0A0E021
:1000A400B1E0ED930197E9F7EEE7F0E085919591E2
:1000B400009761F0A591B59105901590BF01F001ED
:1000C40005900D920197E1F7FB01F0CFE0E0EEBB64
:1000D400EFEFEDBFE8E0EEBFC0E0D3E00C94980092
:1000E4000A921A92FA926A937A938A939A93AA93A7
:1000F400BA93EA93FA93EFB7EA93E091C600E093D8
:100104000003E5E0EA93A1E06AD0A09100037ED069
:10011400E991EFBFF991E991B991A99199918991E7
:1001240079916991F990199009901895E0E8E09314
:100134006100E0E0E0936100E0E9E093C100E6E003
:10014400E093C200E0E0E093C000E093C500E3E385
:10015400E093C400A0E182D04FD0E2E0EA93A0E0B3
:100164003ED0A8E6B0E067D0E0E0EA93A1E037D063
:10017400A5E7B0E060D07894FFCFFFCFAA93E881E1
:10018400E07111F02B9A01C02B98E881E07211F014
:100194002A9A01C02A98E881E07411F0299A01C0D2
:1001A4002998E881E07811F0289A01C028988DE018
:1001B4008A95F1F72C9A8DE08A95F1F72C988DE0C9
:1001C4008A95F1F775C0AA93A881D8DFE881E295F2
:1001D400E883A881D3DF85E88A95F1F769C0AA93FB
:1001E400E881F0E0EF5FFC4FE081A981AE0FEBDF27
:1001F4004980388022960895A2E05CD0ACE0E3DF29
:10020400A1E058D0E0E03E2E4E2E0895AA93A88196
:10021400AA3011F0461448F0E0E0EA933394A32D99
:10022400DEDFA881AA3009F443C043942E9AA88142
:10023400CADF2E983DC0BA93AA931A93E981FA8132
:100244003196E983FA833197E4911E2FE03019F057
:10025400A12FDCDFF3CF188123960895AA93239A64
:10026400229A219A209A249A269A259A2C982E9892
:100274002D986880E881E058E0930303E881E05416
:10028400E0930403A4E1B0E00E94680118D017D001
:1002940016D0A0E273DF88EC90E00197F1F7A8E2B2
:1002A40092DFA4E090DFA5E88EDFA6E08CDFA4DF78
:1002B4002196089588DFA3E0B0E00C946801A0E3E0
:1002C4005DDF88EC90E00197F1F70895109639F01E
:1002D40080ED97E00197F1F7A8951197C9F7089574
:00000001FF
