:0C0000000C9466000C9400000C940000AE
:10000C000C9400000C9400000C9400000C94000064
:10001C000C9400000C9400000C9400000C94000054
:10002C000C9400000C9400000C9400000C94000044
:10003C000C9400000C9400000C9400000C94000034
:10004C000C9400000C9400000C9400000C94000024
:10005C000C9400000C9400000C9400002B00100079
:10006C002020202020202020202020202020202084
:10007C0048454C4C4F20574F524C442020202020B8
:10008C0020202020202020202020200044656D6F7F
:10009C00206F66207468650032783136204C4344FA
:1000AC0020446973706C6179000080C00400030007
:1000BC0068002B0000036C0002002C03B60000004B
:1000CC00F894EE27EFBBF1E0F5BFE5BF8DE0A2E0C1
:1000DC00BB27ED938A95E9F780E098E0A0E0B1E0CA
:1000EC00ED930197E9F7E8EBF0E085919591009796
:1000FC0061F0A591B59105901590BF01F0010590A7
:10010C000D920197E1F7FB01F0CFE0E0EEBBEFEFD2
:10011C00EDBFE8E0EEBFC0E0D3E00C949500E0E862
:10012C00E0936100E0E0E0936100A0E1B7D0E2E091
:10013C00EA93A0E074D0A8E9B0E09DD0E0E0EA93A7
:10014C00A1E06DD0A4EAB0E096D0A0EDB7E00E949B
:10015C008C0172D02497E32DF42DE519F609EA836E
:10016C00FB83AB81AA233AF167D0E0E0E883E98313
:10017C00A881B981A515B605A4F4E881EA93A0E09D
:10018C004ED0E881F981AA81BB81EA0FFB1FE050B8
:10019C00FD4FA0815BD0E881F9813196E883F9832A
:1001AC00E7CFA4EFB1E00E948C01EA81FB8131978B
:1001BC00EA83FB83D6CF2496CDCFFFCFAA93E881D9
:1001CC00E07111F02B9A01C02B98E881E07211F0CC
:1001DC002A9A01C02A98E881E07411F0299A01C08A
:1001EC002998E881E07811F0289A01C028988DE0D0
:1001FC008A95F1F72C9A8DE08A95F1F72C988DE081
:10020C008A95F1F775C0AA93A881D8DFE881E295A9
:10021C00E883A881D3DF85E88A95F1F769C0AA93B2
:10022C00E881F0E0E45DFC4FE081A981AE0FEBDFEB
:10023C008980788022960895A2E05CD0ACE0E3DF60
:10024C00A1E058D0E0E07E2E8E2E0895AA93A881CE
:10025C00AA3011F08A1448F0E0E0EA937394A72DC9
:10026C00DEDFA881AA3009F443C083942E9AA881BA
:10027C00CADF2E983DC0BA93AA931A93E981FA81EA
:10028C003196E983FA833197E4911E2FE03019F00F
:10029C00A12FDCDFF3CF188123960895AA93239A1C
:1002AC00229A219A209A249A269A259A2C982E984A
:1002BC002D98A880E881E058E0932E03E881E05463
:1002CC00E0932F03A4E1B0E00E948C0118D017D06A
:1002DC0016D0A0E273DF88EC90E00197F1F7A8E26A
:1002EC0092DFA4E090DFA5E88EDFA6E08CDFA4DF30
:1002FC002196089588DFA3E0B0E00C948C01A0E374
:10030C005DDF88EC90E00197F1F70895109639F0D5
:10031C0080ED97E00197F1F7A8951197C9F708952B
:00000001FF
