:100000000C9434000C9400000C9400000C9400003C
:100010000C9400000C9400000C9400000C94000060
:100020000C9400000C9400000C9400000C94000050
:100030000C9400000C9400000C9400000C94000040
:100040000C9400000C9400000C947C000C940000B4
:100050000C9400000C9400000C9400000C94000020
:100060000C9400000C940000F894EE27EFBBF1E034
:10007000F5BFE5BF8DE0A2E0BB27ED938A95E9F7D8
:1000800080E098E0A0E0B1E0ED930197E9F7E0E0CF
:10009000EEBBEFEFEDBFE8E0EEBFC0E0D3E00C94C5
:1000A0007100E0E9E093C100E6E0E093C200E0E027
:1000B000E093C000E093C500E3E3E093C40008953B
:1000C000E4B1EC62E4B924982A9AECB5E365ECBD9E
:1000D0000895AA93E881EEBDEDB5E078E9F32196A5
:1000E0000895E0E8E0936100E0E0E0936100D9DF8B
:1000F000E7DF7894FFCFFFCF0A921A92FA926A93C1
:100100007A938A939A93AA93BA93EA93FA93EFB75E
:10011000EA93E091C600E09300032A98A0910003BF
:10012000D8DF2A9AE991EFBFF991E991B991A991A4
:100130009991899179916991F990199009901895FF
:00000001FF
