:100000000C9434000C9400000C9400000C9400003C
:100010000C9400000C9400000C9400000C94000060
:100020000C9400000C9400000C9400000C94000050
:100030000C9400000C9400000C9400000C94000040
:100040000C9400000C9400000C9400000C94000030
:100050000C9400000C9400000C9400000C94000020
:100060000C9400000C940000F894EE27EFBBF1E034
:10007000F5BFE5BF8DE0A2E0BB27ED938A95E9F7D8
:1000800080E098E0A0E0B1E0ED930197E9F7E0E0CF
:10009000EEBBEFEFEDBFE8E0EEBFC0E0D3E00C94C5
:1000A0006F00E4EAE093BC00E091BC00E078E1F38B
:1000B0000895E4E9E093BC00E091BC00E071E1F751
:1000C0000895BA93AA93E881E093BB00E4E8E09333
:1000D000BC00E091BC00E078E1F322960895E0E8EE
:1000E000E0936100E0E0E09361002098289AE093BB
:1000F000B900E0E2E093B800189916C0A2E3B0E0BE
:100100000E949600189910C0E5B1A0E8EA27E5B969
:10011000C8DFA0E4B0E0D5DFA1E0B0E0D2DFC9DF06
:10012000A8ECB0E00E949600E7CFFFCF109639F020
:1001300080ED97E00197F1F7A8951197C9F7089519
:00000001FF
